{
  "_format": "hh-sol-artifact-1",
  "contractName": "CapitaToken",
  "sourceName": "contracts/CapitaToken.sol",
  "abi": [
    {
      "inputs": [
        {
          "internalType": "string",
          "name": "_tokenName",
          "type": "string"
        },
        {
          "internalType": "string",
          "name": "_tokenSymbol",
          "type": "string"
        },
        {
          "internalType": "uint8",
          "name": "_decimals",
          "type": "uint8"
        },
        {
          "internalType": "address",
          "name": "_uniswapV2Router",
          "type": "address"
        }
      ],
      "stateMutability": "nonpayable",
      "type": "constructor"
    },
    {
      "inputs": [],
      "name": "CapitaToken__BuyTaxCannotExceed_30",
      "type": "error"
    },
    {
      "inputs": [],
      "name": "CapitaToken__InvalidWallet",
      "type": "error"
    },
    {
      "inputs": [],
      "name": "CapitaToken__MaxPerTxExceeded",
      "type": "error"
    },
    {
      "inputs": [],
      "name": "CapitaToken__MaxPerWalletExceeded",
      "type": "error"
    },
    {
      "inputs": [],
      "name": "CapitaToken__SellTaxCannotExceed_99",
      "type": "error"
    },
    {
      "inputs": [],
      "name": "CapitaToken__TradingNotEnabled",
      "type": "error"
    },
    {
      "inputs": [],
      "name": "CapitaToken__UniswapPairCannotBeModified",
      "type": "error"
    },
    {
      "anonymous": false,
      "inputs": [
        {
          "indexed": true,
          "internalType": "address",
          "name": "owner",
          "type": "address"
        },
        {
          "indexed": true,
          "internalType": "address",
          "name": "spender",
          "type": "address"
        },
        {
          "indexed": false,
          "internalType": "uint256",
          "name": "value",
          "type": "uint256"
        }
      ],
      "name": "Approval",
      "type": "event"
    },
    {
      "anonymous": false,
      "inputs": [
        {
          "indexed": false,
          "internalType": "bool",
          "name": "inEffect",
          "type": "bool"
        }
      ],
      "name": "LimitsInEffect",
      "type": "event"
    },
    {
      "anonymous": false,
      "inputs": [
        {
          "indexed": true,
          "internalType": "address",
          "name": "previousOwner",
          "type": "address"
        },
        {
          "indexed": true,
          "internalType": "address",
          "name": "newOwner",
          "type": "address"
        }
      ],
      "name": "OwnershipTransferred",
      "type": "event"
    },
    {
      "anonymous": false,
      "inputs": [
        {
          "indexed": false,
          "internalType": "address",
          "name": "pairAddress",
          "type": "address"
        },
        {
          "indexed": false,
          "internalType": "bool",
          "name": "added",
          "type": "bool"
        }
      ],
      "name": "PairAdded",
      "type": "event"
    },
    {
      "anonymous": false,
      "inputs": [
        {
          "indexed": false,
          "internalType": "uint8",
          "name": "buyTax",
          "type": "uint8"
        },
        {
          "indexed": false,
          "internalType": "uint8",
          "name": "sellTax",
          "type": "uint8"
        }
      ],
      "name": "TaxChange",
      "type": "event"
    },
    {
      "anonymous": false,
      "inputs": [
        {
          "indexed": false,
          "internalType": "bool",
          "name": "status",
          "type": "bool"
        },
        {
          "indexed": false,
          "internalType": "bool",
          "name": "limits",
          "type": "bool"
        }
      ],
      "name": "TradingStatus",
      "type": "event"
    },
    {
      "anonymous": false,
      "inputs": [
        {
          "indexed": true,
          "internalType": "address",
          "name": "from",
          "type": "address"
        },
        {
          "indexed": true,
          "internalType": "address",
          "name": "to",
          "type": "address"
        },
        {
          "indexed": false,
          "internalType": "uint256",
          "name": "value",
          "type": "uint256"
        }
      ],
      "name": "Transfer",
      "type": "event"
    },
    {
      "anonymous": false,
      "inputs": [
        {
          "indexed": false,
          "internalType": "address",
          "name": "walletAddress",
          "type": "address"
        },
        {
          "indexed": false,
          "internalType": "bool",
          "name": "excluded",
          "type": "bool"
        }
      ],
      "name": "WalletExcluded",
      "type": "event"
    },
    {
      "anonymous": false,
      "inputs": [
        {
          "indexed": false,
          "internalType": "address",
          "name": "marketingWallet",
          "type": "address"
        },
        {
          "indexed": false,
          "internalType": "address",
          "name": "developmentWallet",
          "type": "address"
        },
        {
          "indexed": false,
          "internalType": "address",
          "name": "liquidityWallet",
          "type": "address"
        }
      ],
      "name": "WalletsChange",
      "type": "event"
    },
    {
      "stateMutability": "payable",
      "type": "fallback"
    },
    {
      "inputs": [
        {
          "internalType": "address",
          "name": "",
          "type": "address"
        }
      ],
      "name": "AMMPairs",
      "outputs": [
        {
          "internalType": "bool",
          "name": "",
          "type": "bool"
        }
      ],
      "stateMutability": "view",
      "type": "function"
    },
    {
      "inputs": [
        {
          "internalType": "address",
          "name": "ammPair",
          "type": "address"
        },
        {
          "internalType": "bool",
          "name": "include",
          "type": "bool"
        }
      ],
      "name": "addAMMPair",
      "outputs": [],
      "stateMutability": "nonpayable",
      "type": "function"
    },
    {
      "inputs": [
        {
          "internalType": "address",
          "name": "owner",
          "type": "address"
        },
        {
          "internalType": "address",
          "name": "spender",
          "type": "address"
        }
      ],
      "name": "allowance",
      "outputs": [
        {
          "internalType": "uint256",
          "name": "",
          "type": "uint256"
        }
      ],
      "stateMutability": "view",
      "type": "function"
    },
    {
      "inputs": [
        {
          "internalType": "address",
          "name": "spender",
          "type": "address"
        },
        {
          "internalType": "uint256",
          "name": "amount",
          "type": "uint256"
        }
      ],
      "name": "approve",
      "outputs": [
        {
          "internalType": "bool",
          "name": "",
          "type": "bool"
        }
      ],
      "stateMutability": "nonpayable",
      "type": "function"
    },
    {
      "inputs": [
        {
          "internalType": "address",
          "name": "account",
          "type": "address"
        }
      ],
      "name": "balanceOf",
      "outputs": [
        {
          "internalType": "uint256",
          "name": "",
          "type": "uint256"
        }
      ],
      "stateMutability": "view",
      "type": "function"
    },
    {
      "inputs": [],
      "name": "buyTax",
      "outputs": [
        {
          "internalType": "uint8",
          "name": "",
          "type": "uint8"
        }
      ],
      "stateMutability": "view",
      "type": "function"
    },
    {
      "inputs": [],
      "name": "decimals",
      "outputs": [
        {
          "internalType": "uint8",
          "name": "",
          "type": "uint8"
        }
      ],
      "stateMutability": "view",
      "type": "function"
    },
    {
      "inputs": [
        {
          "internalType": "address",
          "name": "spender",
          "type": "address"
        },
        {
          "internalType": "uint256",
          "name": "subtractedValue",
          "type": "uint256"
        }
      ],
      "name": "decreaseAllowance",
      "outputs": [
        {
          "internalType": "bool",
          "name": "",
          "type": "bool"
        }
      ],
      "stateMutability": "nonpayable",
      "type": "function"
    },
    {
      "inputs": [],
      "name": "developmentWallet",
      "outputs": [
        {
          "internalType": "address",
          "name": "",
          "type": "address"
        }
      ],
      "stateMutability": "view",
      "type": "function"
    },
    {
      "inputs": [],
      "name": "developmentWalletPercent",
      "outputs": [
        {
          "internalType": "uint256",
          "name": "",
          "type": "uint256"
        }
      ],
      "stateMutability": "view",
      "type": "function"
    },
    {
      "inputs": [
        {
          "internalType": "address",
          "name": "",
          "type": "address"
        }
      ],
      "name": "excludeFromMaxTx",
      "outputs": [
        {
          "internalType": "bool",
          "name": "",
          "type": "bool"
        }
      ],
      "stateMutability": "view",
      "type": "function"
    },
    {
      "inputs": [
        {
          "internalType": "address",
          "name": "",
          "type": "address"
        }
      ],
      "name": "excludedFromFees",
      "outputs": [
        {
          "internalType": "bool",
          "name": "",
          "type": "bool"
        }
      ],
      "stateMutability": "view",
      "type": "function"
    },
    {
      "inputs": [],
      "name": "i_UNISWAP_V2_ROUTER02",
      "outputs": [
        {
          "internalType": "contract IUniswapV2Router02",
          "name": "",
          "type": "address"
        }
      ],
      "stateMutability": "view",
      "type": "function"
    },
    {
      "inputs": [],
      "name": "i_uniswap_pair_address",
      "outputs": [
        {
          "internalType": "address",
          "name": "",
          "type": "address"
        }
      ],
      "stateMutability": "view",
      "type": "function"
    },
    {
      "inputs": [
        {
          "internalType": "address",
          "name": "spender",
          "type": "address"
        },
        {
          "internalType": "uint256",
          "name": "addedValue",
          "type": "uint256"
        }
      ],
      "name": "increaseAllowance",
      "outputs": [
        {
          "internalType": "bool",
          "name": "",
          "type": "bool"
        }
      ],
      "stateMutability": "nonpayable",
      "type": "function"
    },
    {
      "inputs": [],
      "name": "limitsInEffect",
      "outputs": [
        {
          "internalType": "bool",
          "name": "",
          "type": "bool"
        }
      ],
      "stateMutability": "view",
      "type": "function"
    },
    {
      "inputs": [],
      "name": "liquidityWallet",
      "outputs": [
        {
          "internalType": "address",
          "name": "",
          "type": "address"
        }
      ],
      "stateMutability": "view",
      "type": "function"
    },
    {
      "inputs": [],
      "name": "liquidityWalletPercent",
      "outputs": [
        {
          "internalType": "uint256",
          "name": "",
          "type": "uint256"
        }
      ],
      "stateMutability": "view",
      "type": "function"
    },
    {
      "inputs": [],
      "name": "marketingWallet",
      "outputs": [
        {
          "internalType": "address",
          "name": "",
          "type": "address"
        }
      ],
      "stateMutability": "view",
      "type": "function"
    },
    {
      "inputs": [],
      "name": "marketingWalletPercent",
      "outputs": [
        {
          "internalType": "uint256",
          "name": "",
          "type": "uint256"
        }
      ],
      "stateMutability": "view",
      "type": "function"
    },
    {
      "inputs": [],
      "name": "maxPerTx",
      "outputs": [
        {
          "internalType": "uint256",
          "name": "",
          "type": "uint256"
        }
      ],
      "stateMutability": "view",
      "type": "function"
    },
    {
      "inputs": [],
      "name": "maxPerTxPercentage",
      "outputs": [
        {
          "internalType": "uint256",
          "name": "",
          "type": "uint256"
        }
      ],
      "stateMutability": "view",
      "type": "function"
    },
    {
      "inputs": [],
      "name": "maxPerWallet",
      "outputs": [
        {
          "internalType": "uint256",
          "name": "",
          "type": "uint256"
        }
      ],
      "stateMutability": "view",
      "type": "function"
    },
    {
      "inputs": [],
      "name": "maxPerWalletPercentage",
      "outputs": [
        {
          "internalType": "uint8",
          "name": "",
          "type": "uint8"
        }
      ],
      "stateMutability": "view",
      "type": "function"
    },
    {
      "inputs": [],
      "name": "name",
      "outputs": [
        {
          "internalType": "string",
          "name": "",
          "type": "string"
        }
      ],
      "stateMutability": "view",
      "type": "function"
    },
    {
      "inputs": [],
      "name": "owner",
      "outputs": [
        {
          "internalType": "address",
          "name": "",
          "type": "address"
        }
      ],
      "stateMutability": "view",
      "type": "function"
    },
    {
      "inputs": [],
      "name": "renounceOwnership",
      "outputs": [],
      "stateMutability": "nonpayable",
      "type": "function"
    },
    {
      "inputs": [
        {
          "internalType": "address",
          "name": "to",
          "type": "address"
        },
        {
          "internalType": "uint256",
          "name": "amount",
          "type": "uint256"
        }
      ],
      "name": "rescueETH",
      "outputs": [],
      "stateMutability": "nonpayable",
      "type": "function"
    },
    {
      "inputs": [],
      "name": "sellTax",
      "outputs": [
        {
          "internalType": "uint8",
          "name": "",
          "type": "uint8"
        }
      ],
      "stateMutability": "view",
      "type": "function"
    },
    {
      "inputs": [],
      "name": "swapAmount",
      "outputs": [
        {
          "internalType": "uint256",
          "name": "",
          "type": "uint256"
        }
      ],
      "stateMutability": "view",
      "type": "function"
    },
    {
      "inputs": [],
      "name": "swapAmountPercentage",
      "outputs": [
        {
          "internalType": "uint256",
          "name": "",
          "type": "uint256"
        }
      ],
      "stateMutability": "view",
      "type": "function"
    },
    {
      "inputs": [],
      "name": "symbol",
      "outputs": [
        {
          "internalType": "string",
          "name": "",
          "type": "string"
        }
      ],
      "stateMutability": "view",
      "type": "function"
    },
    {
      "inputs": [],
      "name": "totalSupply",
      "outputs": [
        {
          "internalType": "uint256",
          "name": "",
          "type": "uint256"
        }
      ],
      "stateMutability": "view",
      "type": "function"
    },
    {
      "inputs": [],
      "name": "tradingEnabled",
      "outputs": [
        {
          "internalType": "bool",
          "name": "",
          "type": "bool"
        }
      ],
      "stateMutability": "view",
      "type": "function"
    },
    {
      "inputs": [
        {
          "internalType": "address",
          "name": "recipient",
          "type": "address"
        },
        {
          "internalType": "uint256",
          "name": "amount",
          "type": "uint256"
        }
      ],
      "name": "transfer",
      "outputs": [
        {
          "internalType": "bool",
          "name": "",
          "type": "bool"
        }
      ],
      "stateMutability": "nonpayable",
      "type": "function"
    },
    {
      "inputs": [
        {
          "internalType": "address",
          "name": "sender",
          "type": "address"
        },
        {
          "internalType": "address",
          "name": "recipient",
          "type": "address"
        },
        {
          "internalType": "uint256",
          "name": "amount",
          "type": "uint256"
        }
      ],
      "name": "transferFrom",
      "outputs": [
        {
          "internalType": "bool",
          "name": "",
          "type": "bool"
        }
      ],
      "stateMutability": "nonpayable",
      "type": "function"
    },
    {
      "inputs": [
        {
          "internalType": "address",
          "name": "newOwner",
          "type": "address"
        }
      ],
      "name": "transferOwnership",
      "outputs": [],
      "stateMutability": "nonpayable",
      "type": "function"
    },
    {
      "inputs": [
        {
          "internalType": "address",
          "name": "_address",
          "type": "address"
        },
        {
          "internalType": "bool",
          "name": "_exempt",
          "type": "bool"
        }
      ],
      "name": "updateExcludeFromMaxTx",
      "outputs": [],
      "stateMutability": "nonpayable",
      "type": "function"
    },
    {
      "inputs": [
        {
          "internalType": "address",
          "name": "_address",
          "type": "address"
        },
        {
          "internalType": "bool",
          "name": "_exempt",
          "type": "bool"
        }
      ],
      "name": "updateExcludedFromFees",
      "outputs": [],
      "stateMutability": "nonpayable",
      "type": "function"
    },
    {
      "inputs": [
        {
          "internalType": "uint8",
          "name": "_buyTax",
          "type": "uint8"
        },
        {
          "internalType": "uint8",
          "name": "_sellTax",
          "type": "uint8"
        }
      ],
      "name": "updateTaxes",
      "outputs": [],
      "stateMutability": "nonpayable",
      "type": "function"
    },
    {
      "inputs": [
        {
          "internalType": "bool",
          "name": "_status",
          "type": "bool"
        },
        {
          "internalType": "uint8",
          "name": "_maxPerWalletPercent",
          "type": "uint8"
        },
        {
          "internalType": "uint256",
          "name": "_maxPerTxPercentage",
          "type": "uint256"
        },
        {
          "internalType": "uint256",
          "name": "_swapAmountPercentage",
          "type": "uint256"
        },
        {
          "internalType": "bool",
          "name": "_limitsInEffect",
          "type": "bool"
        }
      ],
      "name": "updateTradingParams",
      "outputs": [],
      "stateMutability": "nonpayable",
      "type": "function"
    },
    {
      "inputs": [
        {
          "internalType": "bool",
          "name": "_status",
          "type": "bool"
        },
        {
          "internalType": "bool",
          "name": "_limitsInEffect",
          "type": "bool"
        }
      ],
      "name": "updateTradingStatus",
      "outputs": [],
      "stateMutability": "nonpayable",
      "type": "function"
    },
    {
      "inputs": [
        {
          "internalType": "address",
          "name": "_marketingWallet",
          "type": "address"
        },
        {
          "internalType": "address",
          "name": "_developmentWallet",
          "type": "address"
        },
        {
          "internalType": "address",
          "name": "_liquidityWallet",
          "type": "address"
        }
      ],
      "name": "updateWallets",
      "outputs": [],
      "stateMutability": "nonpayable",
      "type": "function"
    },
    {
      "stateMutability": "payable",
      "type": "receive"
    }
  ],
  "bytecode": "0x60a06040526000600560146101000a81548160ff0219169083151502179055506003600560156101000a81548160ff021916908360ff160217905550600a600755600a6009556003600b60006101000a81548160ff021916908360ff1602179055506003600b60016101000a81548160ff021916908360ff160217905550601e600e556032600f5560146010553480156200009957600080fd5b50604051620051e8380380620051e88339818101604052810190620000bf919062000b13565b83838160039081620000d2919062000e0e565b508060049081620000e4919062000e0e565b5050506000620000f96200076c60201b60201c565b905080600560006101000a81548173ffffffffffffffffffffffffffffffffffffffff021916908373ffffffffffffffffffffffffffffffffffffffff1602179055508073ffffffffffffffffffffffffffffffffffffffff16600073ffffffffffffffffffffffffffffffffffffffff167f8be0079c531659141344cd1fd0a4f28419497f9722a3daafe3b4186f6b6457e060405160405180910390a3506001601260003373ffffffffffffffffffffffffffffffffffffffff1673ffffffffffffffffffffffffffffffffffffffff16815260200190815260200160002060006101000a81548160ff0219169083151502179055506001601260003073ffffffffffffffffffffffffffffffffffffffff1673ffffffffffffffffffffffffffffffffffffffff16815260200190815260200160002060006101000a81548160ff0219169083151502179055506001601260008073ffffffffffffffffffffffffffffffffffffffff1673ffffffffffffffffffffffffffffffffffffffff16815260200190815260200160002060006101000a81548160ff02191690831515021790555060016012600061dead73ffffffffffffffffffffffffffffffffffffffff1673ffffffffffffffffffffffffffffffffffffffff16815260200190815260200160002060006101000a81548160ff02191690831515021790555080601160026101000a81548173ffffffffffffffffffffffffffffffffffffffff021916908373ffffffffffffffffffffffffffffffffffffffff1602179055506000601160029054906101000a900473ffffffffffffffffffffffffffffffffffffffff1673ffffffffffffffffffffffffffffffffffffffff1663c45a01556040518163ffffffff1660e01b8152600401602060405180830381865afa158015620003ab573d6000803e3d6000fd5b505050506040513d601f19601f82011682018060405250810190620003d1919062000ef5565b90508073ffffffffffffffffffffffffffffffffffffffff1663c9c65396601160029054906101000a900473ffffffffffffffffffffffffffffffffffffffff1673ffffffffffffffffffffffffffffffffffffffff1663ad5c46486040518163ffffffff1660e01b8152600401602060405180830381865afa1580156200045d573d6000803e3d6000fd5b505050506040513d601f19601f8201168201806040525081019062000483919062000ef5565b306040518363ffffffff1660e01b8152600401620004a392919062000f38565b6020604051808303816000875af1158015620004c3573d6000803e3d6000fd5b505050506040513d601f19601f82011682018060405250810190620004e9919062000ef5565b73ffffffffffffffffffffffffffffffffffffffff1660808173ffffffffffffffffffffffffffffffffffffffff168152505060016014600060805173ffffffffffffffffffffffffffffffffffffffff1673ffffffffffffffffffffffffffffffffffffffff16815260200190815260200160002060006101000a81548160ff0219169083151502179055506001601360008473ffffffffffffffffffffffffffffffffffffffff1673ffffffffffffffffffffffffffffffffffffffff16815260200190815260200160002060006101000a81548160ff0219169083151502179055506001601360003073ffffffffffffffffffffffffffffffffffffffff1673ffffffffffffffffffffffffffffffffffffffff16815260200190815260200160002060006101000a81548160ff0219169083151502179055506001601360003373ffffffffffffffffffffffffffffffffffffffff1673ffffffffffffffffffffffffffffffffffffffff16815260200190815260200160002060006101000a81548160ff0219169083151502179055506001601360008073ffffffffffffffffffffffffffffffffffffffff1673ffffffffffffffffffffffffffffffffffffffff16815260200190815260200160002060006101000a81548160ff02191690831515021790555060016013600061dead73ffffffffffffffffffffffffffffffffffffffff1673ffffffffffffffffffffffffffffffffffffffff16815260200190815260200160002060006101000a81548160ff021916908315150217905550620007613384600a620007449190620010e8565b633b9aca0062000755919062001139565b6200077460201b60201c565b505050505062001270565b600033905090565b600073ffffffffffffffffffffffffffffffffffffffff168273ffffffffffffffffffffffffffffffffffffffff1603620007e6576040517f08c379a0000000000000000000000000000000000000000000000000000000008152600401620007dd90620011e5565b60405180910390fd5b620007fa60008383620008d860201b60201c565b80600260008282546200080e919062001207565b92505081905550806000808473ffffffffffffffffffffffffffffffffffffffff1673ffffffffffffffffffffffffffffffffffffffff168152602001908152602001600020600082825462000865919062001207565b925050819055508173ffffffffffffffffffffffffffffffffffffffff16600073ffffffffffffffffffffffffffffffffffffffff167fddf252ad1be2c89b69c2b068fc378daa952ba7f163c4a11628f55a4df523b3ef83604051620008cc919062001253565b60405180910390a35050565b505050565b6000604051905090565b600080fd5b600080fd5b600080fd5b600080fd5b6000601f19601f8301169050919050565b7f4e487b7100000000000000000000000000000000000000000000000000000000600052604160045260246000fd5b6200094682620008fb565b810181811067ffffffffffffffff821117156200096857620009676200090c565b5b80604052505050565b60006200097d620008dd565b90506200098b82826200093b565b919050565b600067ffffffffffffffff821115620009ae57620009ad6200090c565b5b620009b982620008fb565b9050602081019050919050565b60005b83811015620009e6578082015181840152602081019050620009c9565b60008484015250505050565b600062000a0962000a038462000990565b62000971565b90508281526020810184848401111562000a285762000a27620008f6565b5b62000a35848285620009c6565b509392505050565b600082601f83011262000a555762000a54620008f1565b5b815162000a67848260208601620009f2565b91505092915050565b600060ff82169050919050565b62000a888162000a70565b811462000a9457600080fd5b50565b60008151905062000aa88162000a7d565b92915050565b600073ffffffffffffffffffffffffffffffffffffffff82169050919050565b600062000adb8262000aae565b9050919050565b62000aed8162000ace565b811462000af957600080fd5b50565b60008151905062000b0d8162000ae2565b92915050565b6000806000806080858703121562000b305762000b2f620008e7565b5b600085015167ffffffffffffffff81111562000b515762000b50620008ec565b5b62000b5f8782880162000a3d565b945050602085015167ffffffffffffffff81111562000b835762000b82620008ec565b5b62000b918782880162000a3d565b935050604062000ba48782880162000a97565b925050606062000bb78782880162000afc565b91505092959194509250565b600081519050919050565b7f4e487b7100000000000000000000000000000000000000000000000000000000600052602260045260246000fd5b6000600282049050600182168062000c1657607f821691505b60208210810362000c2c5762000c2b62000bce565b5b50919050565b60008190508160005260206000209050919050565b60006020601f8301049050919050565b600082821b905092915050565b60006008830262000c967fffffffffffffffffffffffffffffffffffffffffffffffffffffffffffffffff8262000c57565b62000ca2868362000c57565b95508019841693508086168417925050509392505050565b6000819050919050565b6000819050919050565b600062000cef62000ce962000ce38462000cba565b62000cc4565b62000cba565b9050919050565b6000819050919050565b62000d0b8362000cce565b62000d2362000d1a8262000cf6565b84845462000c64565b825550505050565b600090565b62000d3a62000d2b565b62000d4781848462000d00565b505050565b5b8181101562000d6f5762000d6360008262000d30565b60018101905062000d4d565b5050565b601f82111562000dbe5762000d888162000c32565b62000d938462000c47565b8101602085101562000da3578190505b62000dbb62000db28562000c47565b83018262000d4c565b50505b505050565b600082821c905092915050565b600062000de36000198460080262000dc3565b1980831691505092915050565b600062000dfe838362000dd0565b9150826002028217905092915050565b62000e198262000bc3565b67ffffffffffffffff81111562000e355762000e346200090c565b5b62000e41825462000bfd565b62000e4e82828562000d73565b600060209050601f83116001811462000e86576000841562000e71578287015190505b62000e7d858262000df0565b86555062000eed565b601f19841662000e968662000c32565b60005b8281101562000ec05784890151825560018201915060208501945060208101905062000e99565b8683101562000ee0578489015162000edc601f89168262000dd0565b8355505b6001600288020188555050505b505050505050565b60006020828403121562000f0e5762000f0d620008e7565b5b600062000f1e8482850162000afc565b91505092915050565b62000f328162000ace565b82525050565b600060408201905062000f4f600083018562000f27565b62000f5e602083018462000f27565b9392505050565b7f4e487b7100000000000000000000000000000000000000000000000000000000600052601160045260246000fd5b60008160011c9050919050565b6000808291508390505b600185111562000ff35780860481111562000fcb5762000fca62000f65565b5b600185161562000fdb5780820291505b808102905062000feb8562000f94565b945062000fab565b94509492505050565b6000826200100e5760019050620010e1565b816200101e5760009050620010e1565b8160018114620010375760028114620010425762001078565b6001915050620010e1565b60ff84111562001057576200105662000f65565b5b8360020a91508482111562001071576200107062000f65565b5b50620010e1565b5060208310610133831016604e8410600b8410161715620010b25782820a905083811115620010ac57620010ab62000f65565b5b620010e1565b620010c1848484600162000fa1565b92509050818404811115620010db57620010da62000f65565b5b81810290505b9392505050565b6000620010f58262000cba565b9150620011028362000a70565b9250620011317fffffffffffffffffffffffffffffffffffffffffffffffffffffffffffffffff848462000ffc565b905092915050565b6000620011468262000cba565b9150620011538362000cba565b9250828202620011638162000cba565b915082820484148315176200117d576200117c62000f65565b5b5092915050565b600082825260208201905092915050565b7f45524332303a206d696e7420746f20746865207a65726f206164647265737300600082015250565b6000620011cd601f8362001184565b9150620011da8262001195565b602082019050919050565b600060208201905081810360008301526200120081620011be565b9050919050565b6000620012148262000cba565b9150620012218362000cba565b92508282019050808211156200123c576200123b62000f65565b5b92915050565b6200124d8162000cba565b82525050565b60006020820190506200126a600083018462001242565b92915050565b608051613f5562001293600039600081816110c5015261143d0152613f556000f3fe6080604052600436106102605760003560e01c806375f0a87411610144578063c04a5414116100b6578063dbe66ca01161007a578063dbe66ca014610910578063dd62ed3e1461094d578063e545fd6d1461098a578063e67eea3f146109b3578063f2fde38b146109dc578063f968adbe14610a0557610267565b8063c04a541414610829578063cc1776d314610854578063d34abce91461087f578063d4698016146108a8578063db4cf1e0146108d357610267565b806395f8788c1161010857806395f8788c146107095780639eba640e14610732578063a457c2d71461075b578063a9059cbb14610798578063ad2f0b80146107d5578063b5443f6f1461080057610267565b806375f0a87414610620578063768565571461064b5780638da5cb5b146106885780639296da16146106b357806395d89b41146106de57610267565b8063313ce567116101dd5780634ada218b116101a15780634ada218b146105205780634f7041a51461054b578063549ffc3e146105765780635573f83c146105a157806370a08231146105cc578063715018a61461060957610267565b8063313ce5671461043757806339509351146104625780633e29c84d1461049f578063453c2310146104ca5780634a62bb65146104f557610267565b80632094038d116102245780632094038d1461034e57806320a6a91b1461037957806323b872dd146103a45780632c70a4ec146103e15780632e8fa8211461040c57610267565b806306fdde0314610269578063095ea7b314610294578063099a04e5146102d1578063147c9f6d146102fa57806318160ddd1461032357610267565b3661026757005b005b34801561027557600080fd5b5061027e610a30565b60405161028b9190612f13565b60405180910390f35b3480156102a057600080fd5b506102bb60048036038101906102b69190612fce565b610ac2565b6040516102c89190613029565b60405180910390f35b3480156102dd57600080fd5b506102f860048036038101906102f39190612fce565b610ae0565b005b34801561030657600080fd5b50610321600480360381019061031c9190613044565b610c0d565b005b34801561032f57600080fd5b50610338610ebe565b60405161034591906130a6565b60405180910390f35b34801561035a57600080fd5b50610363610ec8565b60405161037091906130dd565b60405180910390f35b34801561038557600080fd5b5061038e610edb565b60405161039b91906130a6565b60405180910390f35b3480156103b057600080fd5b506103cb60048036038101906103c691906130f8565b610ee1565b6040516103d89190613029565b60405180910390f35b3480156103ed57600080fd5b506103f6610fe2565b60405161040391906131aa565b60405180910390f35b34801561041857600080fd5b50610421611008565b60405161042e91906130a6565b60405180910390f35b34801561044357600080fd5b5061044c61100e565b60405161045991906130dd565b60405180910390f35b34801561046e57600080fd5b5061048960048036038101906104849190612fce565b611017565b6040516104969190613029565b60405180910390f35b3480156104ab57600080fd5b506104b46110c3565b6040516104c191906131d4565b60405180910390f35b3480156104d657600080fd5b506104df6110e7565b6040516104ec91906130a6565b60405180910390f35b34801561050157600080fd5b5061050a6110ed565b6040516105179190613029565b60405180910390f35b34801561052c57600080fd5b50610535611100565b6040516105429190613029565b60405180910390f35b34801561055757600080fd5b50610560611113565b60405161056d91906130dd565b60405180910390f35b34801561058257600080fd5b5061058b611126565b60405161059891906130a6565b60405180910390f35b3480156105ad57600080fd5b506105b661112c565b6040516105c391906130a6565b60405180910390f35b3480156105d857600080fd5b506105f360048036038101906105ee91906131ef565b611132565b60405161060091906130a6565b60405180910390f35b34801561061557600080fd5b5061061e61117a565b005b34801561062c57600080fd5b506106356112b7565b60405161064291906131d4565b60405180910390f35b34801561065757600080fd5b50610672600480360381019061066d91906131ef565b6112dd565b60405161067f9190613029565b60405180910390f35b34801561069457600080fd5b5061069d6112fd565b6040516106aa91906131d4565b60405180910390f35b3480156106bf57600080fd5b506106c8611327565b6040516106d591906130a6565b60405180910390f35b3480156106ea57600080fd5b506106f361132d565b6040516107009190612f13565b60405180910390f35b34801561071557600080fd5b50610730600480360381019061072b9190613248565b6113bf565b005b34801561073e57600080fd5b50610759600480360381019061075491906132b4565b611554565b005b34801561076757600080fd5b50610782600480360381019061077d9190612fce565b6116bf565b60405161078f9190613029565b60405180910390f35b3480156107a457600080fd5b506107bf60048036038101906107ba9190612fce565b6117b3565b6040516107cc9190613029565b60405180910390f35b3480156107e157600080fd5b506107ea6117d1565b6040516107f791906130a6565b60405180910390f35b34801561080c57600080fd5b50610827600480360381019061082291906132f4565b6117d7565b005b34801561083557600080fd5b5061083e6118c4565b60405161084b91906131d4565b60405180910390f35b34801561086057600080fd5b506108696118ea565b60405161087691906130dd565b60405180910390f35b34801561088b57600080fd5b506108a660048036038101906108a19190613248565b6118fd565b005b3480156108b457600080fd5b506108bd6119d4565b6040516108ca91906131d4565b60405180910390f35b3480156108df57600080fd5b506108fa60048036038101906108f591906131ef565b6119fa565b6040516109079190613029565b60405180910390f35b34801561091c57600080fd5b50610937600480360381019061093291906131ef565b611a1a565b6040516109449190613029565b60405180910390f35b34801561095957600080fd5b50610974600480360381019061096f9190613334565b611a3a565b60405161098191906130a6565b60405180910390f35b34801561099657600080fd5b506109b160048036038101906109ac9190613248565b611ac1565b005b3480156109bf57600080fd5b506109da60048036038101906109d59190613374565b611bd1565b005b3480156109e857600080fd5b50610a0360048036038101906109fe91906131ef565b611d90565b005b348015610a1157600080fd5b50610a1a611f3b565b604051610a2791906130a6565b60405180910390f35b606060038054610a3f9061341e565b80601f0160208091040260200160405190810160405280929190818152602001828054610a6b9061341e565b8015610ab85780601f10610a8d57610100808354040283529160200191610ab8565b820191906000526020600020905b815481529060010190602001808311610a9b57829003601f168201915b5050505050905090565b6000610ad6610acf611f41565b8484611f49565b6001905092915050565b610ae8611f41565b73ffffffffffffffffffffffffffffffffffffffff16610b066112fd565b73ffffffffffffffffffffffffffffffffffffffff1614610b5c576040517f08c379a0000000000000000000000000000000000000000000000000000000008152600401610b539061349b565b60405180910390fd5b60008273ffffffffffffffffffffffffffffffffffffffff1682604051610b82906134ec565b60006040518083038185875af1925050503d8060008114610bbf576040519150601f19603f3d011682016040523d82523d6000602084013e610bc4565b606091505b5050905080610c08576040517f08c379a0000000000000000000000000000000000000000000000000000000008152600401610bff9061354d565b60405180910390fd5b505050565b610c15611f41565b73ffffffffffffffffffffffffffffffffffffffff16610c336112fd565b73ffffffffffffffffffffffffffffffffffffffff1614610c89576040517f08c379a0000000000000000000000000000000000000000000000000000000008152600401610c809061349b565b60405180910390fd5b600073ffffffffffffffffffffffffffffffffffffffff168373ffffffffffffffffffffffffffffffffffffffff1603610cef576040517f7a36789a00000000000000000000000000000000000000000000000000000000815260040160405180910390fd5b600073ffffffffffffffffffffffffffffffffffffffff168273ffffffffffffffffffffffffffffffffffffffff1603610d55576040517f7a36789a00000000000000000000000000000000000000000000000000000000815260040160405180910390fd5b600073ffffffffffffffffffffffffffffffffffffffff168173ffffffffffffffffffffffffffffffffffffffff1603610dbb576040517f7a36789a00000000000000000000000000000000000000000000000000000000815260040160405180910390fd5b82600b60026101000a81548173ffffffffffffffffffffffffffffffffffffffff021916908373ffffffffffffffffffffffffffffffffffffffff16021790555081600c60006101000a81548173ffffffffffffffffffffffffffffffffffffffff021916908373ffffffffffffffffffffffffffffffffffffffff16021790555080600d60006101000a81548173ffffffffffffffffffffffffffffffffffffffff021916908373ffffffffffffffffffffffffffffffffffffffff1602179055507fc43b6b205ae38fe6d711de2952e9c87bb035c014736176c733253eb79342e196838383604051610eb19392919061356d565b60405180910390a1505050565b6000600254905090565b600560159054906101000a900460ff1681565b600f5481565b6000610eee848484612112565b6000600160008673ffffffffffffffffffffffffffffffffffffffff1673ffffffffffffffffffffffffffffffffffffffff1681526020019081526020016000206000610f39611f41565b73ffffffffffffffffffffffffffffffffffffffff1673ffffffffffffffffffffffffffffffffffffffff16815260200190815260200160002054905082811015610fb9576040517f08c379a0000000000000000000000000000000000000000000000000000000008152600401610fb090613616565b60405180910390fd5b610fd685610fc5611f41565b8584610fd19190613665565b611f49565b60019150509392505050565b601160029054906101000a900473ffffffffffffffffffffffffffffffffffffffff1681565b600a5481565b60006012905090565b60006110b9611024611f41565b848460016000611032611f41565b73ffffffffffffffffffffffffffffffffffffffff1673ffffffffffffffffffffffffffffffffffffffff16815260200190815260200160002060008873ffffffffffffffffffffffffffffffffffffffff1673ffffffffffffffffffffffffffffffffffffffff168152602001908152602001600020546110b49190613699565b611f49565b6001905092915050565b7f000000000000000000000000000000000000000000000000000000000000000081565b60065481565b601160009054906101000a900460ff1681565b600560149054906101000a900460ff1681565b600b60009054906101000a900460ff1681565b60105481565b60075481565b60008060008373ffffffffffffffffffffffffffffffffffffffff1673ffffffffffffffffffffffffffffffffffffffff168152602001908152602001600020549050919050565b611182611f41565b73ffffffffffffffffffffffffffffffffffffffff166111a06112fd565b73ffffffffffffffffffffffffffffffffffffffff16146111f6576040517f08c379a00000000000000000000000000000000000000000000000000000000081526004016111ed9061349b565b60405180910390fd5b600073ffffffffffffffffffffffffffffffffffffffff16600560009054906101000a900473ffffffffffffffffffffffffffffffffffffffff1673ffffffffffffffffffffffffffffffffffffffff167f8be0079c531659141344cd1fd0a4f28419497f9722a3daafe3b4186f6b6457e060405160405180910390a36000600560006101000a81548173ffffffffffffffffffffffffffffffffffffffff021916908373ffffffffffffffffffffffffffffffffffffffff160217905550565b600b60029054906101000a900473ffffffffffffffffffffffffffffffffffffffff1681565b60146020528060005260406000206000915054906101000a900460ff1681565b6000600560009054906101000a900473ffffffffffffffffffffffffffffffffffffffff16905090565b60095481565b60606004805461133c9061341e565b80601f01602080910402602001604051908101604052809291908181526020018280546113689061341e565b80156113b55780601f1061138a576101008083540402835291602001916113b5565b820191906000526020600020905b81548152906001019060200180831161139857829003601f168201915b5050505050905090565b6113c7611f41565b73ffffffffffffffffffffffffffffffffffffffff166113e56112fd565b73ffffffffffffffffffffffffffffffffffffffff161461143b576040517f08c379a00000000000000000000000000000000000000000000000000000000081526004016114329061349b565b60405180910390fd5b7f000000000000000000000000000000000000000000000000000000000000000073ffffffffffffffffffffffffffffffffffffffff168273ffffffffffffffffffffffffffffffffffffffff16036114c0576040517fb3acd55600000000000000000000000000000000000000000000000000000000815260040160405180910390fd5b80601460008473ffffffffffffffffffffffffffffffffffffffff1673ffffffffffffffffffffffffffffffffffffffff16815260200190815260200160002060006101000a81548160ff0219169083151502179055507f34748ae5cae03b11e7acdd8c5952babb153c6b7d0b18cf8b0ab21652e4cf82f482826040516115489291906136cd565b60405180910390a15050565b61155c611f41565b73ffffffffffffffffffffffffffffffffffffffff1661157a6112fd565b73ffffffffffffffffffffffffffffffffffffffff16146115d0576040517f08c379a00000000000000000000000000000000000000000000000000000000081526004016115c79061349b565b60405180910390fd5b601e8260ff16111561160e576040517f48c9c23000000000000000000000000000000000000000000000000000000000815260040160405180910390fd5b60638160ff16111561164c576040517f8320b28400000000000000000000000000000000000000000000000000000000815260040160405180910390fd5b81600b60006101000a81548160ff021916908360ff16021790555080600b60016101000a81548160ff021916908360ff1602179055507fef5e557bb91b2ce72af943bdd11c56efd9174584595953904f2d8eb425299ca382826040516116b39291906136f6565b60405180910390a15050565b600080600160006116ce611f41565b73ffffffffffffffffffffffffffffffffffffffff1673ffffffffffffffffffffffffffffffffffffffff16815260200190815260200160002060008573ffffffffffffffffffffffffffffffffffffffff1673ffffffffffffffffffffffffffffffffffffffff1681526020019081526020016000205490508281101561178b576040517f08c379a000000000000000000000000000000000000000000000000000000000815260040161178290613791565b60405180910390fd5b6117a8611796611f41565b8585846117a39190613665565b611f49565b600191505092915050565b60006117c76117c0611f41565b8484612112565b6001905092915050565b600e5481565b6117df611f41565b73ffffffffffffffffffffffffffffffffffffffff166117fd6112fd565b73ffffffffffffffffffffffffffffffffffffffff1614611853576040517f08c379a000000000000000000000000000000000000000000000000000000000815260040161184a9061349b565b60405180910390fd5b81600560146101000a81548160ff02191690831515021790555080601160006101000a81548160ff0219169083151502179055507f1c302a6bb4e42be89e4b96006f05c82ab29266e8d372204a671f095700628bf982826040516118b89291906137b1565b60405180910390a15050565b600c60009054906101000a900473ffffffffffffffffffffffffffffffffffffffff1681565b600b60019054906101000a900460ff1681565b611905611f41565b73ffffffffffffffffffffffffffffffffffffffff166119236112fd565b73ffffffffffffffffffffffffffffffffffffffff1614611979576040517f08c379a00000000000000000000000000000000000000000000000000000000081526004016119709061349b565b60405180910390fd5b80601360008473ffffffffffffffffffffffffffffffffffffffff1673ffffffffffffffffffffffffffffffffffffffff16815260200190815260200160002060006101000a81548160ff0219169083151502179055505050565b600d60009054906101000a900473ffffffffffffffffffffffffffffffffffffffff1681565b60136020528060005260406000206000915054906101000a900460ff1681565b60126020528060005260406000206000915054906101000a900460ff1681565b6000600160008473ffffffffffffffffffffffffffffffffffffffff1673ffffffffffffffffffffffffffffffffffffffff16815260200190815260200160002060008373ffffffffffffffffffffffffffffffffffffffff1673ffffffffffffffffffffffffffffffffffffffff16815260200190815260200160002054905092915050565b611ac9611f41565b73ffffffffffffffffffffffffffffffffffffffff16611ae76112fd565b73ffffffffffffffffffffffffffffffffffffffff1614611b3d576040517f08c379a0000000000000000000000000000000000000000000000000000000008152600401611b349061349b565b60405180910390fd5b80601260008473ffffffffffffffffffffffffffffffffffffffff1673ffffffffffffffffffffffffffffffffffffffff16815260200190815260200160002060006101000a81548160ff0219169083151502179055507f2a5f9b66922508fa25e17b3639538242a1a4fe74b92d315213dbfea82ca123038282604051611bc59291906136cd565b60405180910390a15050565b611bd9611f41565b73ffffffffffffffffffffffffffffffffffffffff16611bf76112fd565b73ffffffffffffffffffffffffffffffffffffffff1614611c4d576040517f08c379a0000000000000000000000000000000000000000000000000000000008152600401611c449061349b565b60405180910390fd5b84600560146101000a81548160ff02191690831515021790555080601160006101000a81548160ff02191690831515021790555060008460ff161115611ce05783600560156101000a81548160ff021916908360ff1602179055506064600560159054906101000a900460ff1660ff16611cc5610ebe565b611ccf91906137da565b611cd9919061384b565b6006819055505b6000831115611d1957826007819055506103e8600754611cfe610ebe565b611d0891906137da565b611d12919061384b565b6008819055505b6000821115611d5057816009819055506103e882611d35610ebe565b611d3f91906137da565b611d49919061384b565b600a819055505b7f1c302a6bb4e42be89e4b96006f05c82ab29266e8d372204a671f095700628bf98582604051611d819291906137b1565b60405180910390a15050505050565b611d98611f41565b73ffffffffffffffffffffffffffffffffffffffff16611db66112fd565b73ffffffffffffffffffffffffffffffffffffffff1614611e0c576040517f08c379a0000000000000000000000000000000000000000000000000000000008152600401611e039061349b565b60405180910390fd5b600073ffffffffffffffffffffffffffffffffffffffff168173ffffffffffffffffffffffffffffffffffffffff1603611e7b576040517f08c379a0000000000000000000000000000000000000000000000000000000008152600401611e72906138ee565b60405180910390fd5b8073ffffffffffffffffffffffffffffffffffffffff16600560009054906101000a900473ffffffffffffffffffffffffffffffffffffffff1673ffffffffffffffffffffffffffffffffffffffff167f8be0079c531659141344cd1fd0a4f28419497f9722a3daafe3b4186f6b6457e060405160405180910390a380600560006101000a81548173ffffffffffffffffffffffffffffffffffffffff021916908373ffffffffffffffffffffffffffffffffffffffff16021790555050565b60085481565b600033905090565b600073ffffffffffffffffffffffffffffffffffffffff168373ffffffffffffffffffffffffffffffffffffffff1603611fb8576040517f08c379a0000000000000000000000000000000000000000000000000000000008152600401611faf90613980565b60405180910390fd5b600073ffffffffffffffffffffffffffffffffffffffff168273ffffffffffffffffffffffffffffffffffffffff1603612027576040517f08c379a000000000000000000000000000000000000000000000000000000000815260040161201e90613a12565b60405180910390fd5b80600160008573ffffffffffffffffffffffffffffffffffffffff1673ffffffffffffffffffffffffffffffffffffffff16815260200190815260200160002060008473ffffffffffffffffffffffffffffffffffffffff1673ffffffffffffffffffffffffffffffffffffffff168152602001908152602001600020819055508173ffffffffffffffffffffffffffffffffffffffff168373ffffffffffffffffffffffffffffffffffffffff167f8c5be1e5ebec7d5bd14f71427d1e84f3dd0314c0f7b2291e5b200ac8c7c3b9258360405161210591906130a6565b60405180910390a3505050565b600073ffffffffffffffffffffffffffffffffffffffff168373ffffffffffffffffffffffffffffffffffffffff1603612178576040517f7a36789a00000000000000000000000000000000000000000000000000000000815260040160405180910390fd5b600073ffffffffffffffffffffffffffffffffffffffff168273ffffffffffffffffffffffffffffffffffffffff16036121de576040517f7a36789a00000000000000000000000000000000000000000000000000000000815260040160405180910390fd5b6000601260008573ffffffffffffffffffffffffffffffffffffffff1673ffffffffffffffffffffffffffffffffffffffff16815260200190815260200160002060009054906101000a900460ff1690506000601260008573ffffffffffffffffffffffffffffffffffffffff1673ffffffffffffffffffffffffffffffffffffffff16815260200190815260200160002060009054906101000a900460ff1690506000601460008673ffffffffffffffffffffffffffffffffffffffff1673ffffffffffffffffffffffffffffffffffffffff16815260200190815260200160002060009054906101000a900460ff1690506000601460008873ffffffffffffffffffffffffffffffffffffffff1673ffffffffffffffffffffffffffffffffffffffff16815260200190815260200160002060009054906101000a900460ff169050600560149054906101000a900460ff1661237a5783158015612342575082155b15612379576040517fc8a6762f00000000000000000000000000000000000000000000000000000000815260040160405180910390fd5b5b6000600a5461238830611132565b10159050828015612397575083155b80156123a1575084155b80156123aa5750805b80156123c35750601160019054906101000a900460ff16155b156123d1576123d0612679565b5b6000841580156123de5750825b1561250757601160009054906101000a900460ff16156124d657601360008973ffffffffffffffffffffffffffffffffffffffff1673ffffffffffffffffffffffffffffffffffffffff16815260200190815260200160002060009054906101000a900460ff166124d557600854871115612485576040517fe8aba12b00000000000000000000000000000000000000000000000000000000815260040160405180910390fd5b60065461249189611132565b8861249c9190613699565b11156124d4576040517f142f688d00000000000000000000000000000000000000000000000000000000815260040160405180910390fd5b5b5b6064600b60009054906101000a900460ff1660ff16886124f691906137da565b612500919061384b565b9050612643565b851580156125125750835b156125d657601360008a73ffffffffffffffffffffffffffffffffffffffff1673ffffffffffffffffffffffffffffffffffffffff16815260200190815260200160002060009054906101000a900460ff166125a5576008548711156125a4576040517fe8aba12b00000000000000000000000000000000000000000000000000000000815260040160405180910390fd5b5b6064600b60019054906101000a900460ff1660ff16886125c591906137da565b6125cf919061384b565b9050612642565b8461264157601160009054906101000a900460ff1615612640576006546125fc89611132565b886126079190613699565b111561263f576040517f142f688d00000000000000000000000000000000000000000000000000000000815260040160405180910390fd5b5b5b5b5b6000811115612658576126578930836129be565b5b61266e8989838a6126699190613665565b6129be565b505050505050505050565b601160019054906101000a900460ff166129bc576001601160016101000a81548160ff02191690831515021790555060006126b330611132565b905060004790506126c382612c3b565b600081476126d19190613665565b905060006064600e54836126e591906137da565b6126ef919061384b565b905060006064600f548461270391906137da565b61270d919061384b565b9050600060646010548561272191906137da565b61272b919061384b565b90506000600b60029054906101000a900473ffffffffffffffffffffffffffffffffffffffff1673ffffffffffffffffffffffffffffffffffffffff1684604051612775906134ec565b60006040518083038185875af1925050503d80600081146127b2576040519150601f19603f3d011682016040523d82523d6000602084013e6127b7565b606091505b50509050806127fb576040517f08c379a00000000000000000000000000000000000000000000000000000000081526004016127f290613a7e565b60405180910390fd5b6000600c60009054906101000a900473ffffffffffffffffffffffffffffffffffffffff1673ffffffffffffffffffffffffffffffffffffffff1684604051612843906134ec565b60006040518083038185875af1925050503d8060008114612880576040519150601f19603f3d011682016040523d82523d6000602084013e612885565b606091505b50509050806128c9576040517f08c379a00000000000000000000000000000000000000000000000000000000081526004016128c090613aea565b60405180910390fd5b6000600d60009054906101000a900473ffffffffffffffffffffffffffffffffffffffff1673ffffffffffffffffffffffffffffffffffffffff1684604051612911906134ec565b60006040518083038185875af1925050503d806000811461294e576040519150601f19603f3d011682016040523d82523d6000602084013e612953565b606091505b5050905080612997576040517f08c379a000000000000000000000000000000000000000000000000000000000815260040161298e90613b56565b60405180910390fd5b6000601160016101000a81548160ff0219169083151502179055505050505050505050505b565b600073ffffffffffffffffffffffffffffffffffffffff168373ffffffffffffffffffffffffffffffffffffffff1603612a2d576040517f08c379a0000000000000000000000000000000000000000000000000000000008152600401612a2490613be8565b60405180910390fd5b600073ffffffffffffffffffffffffffffffffffffffff168273ffffffffffffffffffffffffffffffffffffffff1603612a9c576040517f08c379a0000000000000000000000000000000000000000000000000000000008152600401612a9390613c7a565b60405180910390fd5b612aa7838383612e7e565b60008060008573ffffffffffffffffffffffffffffffffffffffff1673ffffffffffffffffffffffffffffffffffffffff16815260200190815260200160002054905081811015612b2d576040517f08c379a0000000000000000000000000000000000000000000000000000000008152600401612b2490613d0c565b60405180910390fd5b8181612b399190613665565b6000808673ffffffffffffffffffffffffffffffffffffffff1673ffffffffffffffffffffffffffffffffffffffff16815260200190815260200160002081905550816000808573ffffffffffffffffffffffffffffffffffffffff1673ffffffffffffffffffffffffffffffffffffffff1681526020019081526020016000206000828254612bc99190613699565b925050819055508273ffffffffffffffffffffffffffffffffffffffff168473ffffffffffffffffffffffffffffffffffffffff167fddf252ad1be2c89b69c2b068fc378daa952ba7f163c4a11628f55a4df523b3ef84604051612c2d91906130a6565b60405180910390a350505050565b6000600267ffffffffffffffff811115612c5857612c57613d2c565b5b604051908082528060200260200182016040528015612c865781602001602082028036833780820191505090505b5090503081600081518110612c9e57612c9d613d5b565b5b602002602001019073ffffffffffffffffffffffffffffffffffffffff16908173ffffffffffffffffffffffffffffffffffffffff1681525050601160029054906101000a900473ffffffffffffffffffffffffffffffffffffffff1673ffffffffffffffffffffffffffffffffffffffff1663ad5c46486040518163ffffffff1660e01b8152600401602060405180830381865afa158015612d45573d6000803e3d6000fd5b505050506040513d601f19601f82011682018060405250810190612d699190613d9f565b81600181518110612d7d57612d7c613d5b565b5b602002602001019073ffffffffffffffffffffffffffffffffffffffff16908173ffffffffffffffffffffffffffffffffffffffff1681525050612de430601160029054906101000a900473ffffffffffffffffffffffffffffffffffffffff1684611f49565b601160029054906101000a900473ffffffffffffffffffffffffffffffffffffffff1673ffffffffffffffffffffffffffffffffffffffff1663791ac9478360008430426040518663ffffffff1660e01b8152600401612e48959493929190613ec5565b600060405180830381600087803b158015612e6257600080fd5b505af1158015612e76573d6000803e3d6000fd5b505050505050565b505050565b600081519050919050565b600082825260208201905092915050565b60005b83811015612ebd578082015181840152602081019050612ea2565b60008484015250505050565b6000601f19601f8301169050919050565b6000612ee582612e83565b612eef8185612e8e565b9350612eff818560208601612e9f565b612f0881612ec9565b840191505092915050565b60006020820190508181036000830152612f2d8184612eda565b905092915050565b600080fd5b600073ffffffffffffffffffffffffffffffffffffffff82169050919050565b6000612f6582612f3a565b9050919050565b612f7581612f5a565b8114612f8057600080fd5b50565b600081359050612f9281612f6c565b92915050565b6000819050919050565b612fab81612f98565b8114612fb657600080fd5b50565b600081359050612fc881612fa2565b92915050565b60008060408385031215612fe557612fe4612f35565b5b6000612ff385828601612f83565b925050602061300485828601612fb9565b9150509250929050565b60008115159050919050565b6130238161300e565b82525050565b600060208201905061303e600083018461301a565b92915050565b60008060006060848603121561305d5761305c612f35565b5b600061306b86828701612f83565b935050602061307c86828701612f83565b925050604061308d86828701612f83565b9150509250925092565b6130a081612f98565b82525050565b60006020820190506130bb6000830184613097565b92915050565b600060ff82169050919050565b6130d7816130c1565b82525050565b60006020820190506130f260008301846130ce565b92915050565b60008060006060848603121561311157613110612f35565b5b600061311f86828701612f83565b935050602061313086828701612f83565b925050604061314186828701612fb9565b9150509250925092565b6000819050919050565b600061317061316b61316684612f3a565b61314b565b612f3a565b9050919050565b600061318282613155565b9050919050565b600061319482613177565b9050919050565b6131a481613189565b82525050565b60006020820190506131bf600083018461319b565b92915050565b6131ce81612f5a565b82525050565b60006020820190506131e960008301846131c5565b92915050565b60006020828403121561320557613204612f35565b5b600061321384828501612f83565b91505092915050565b6132258161300e565b811461323057600080fd5b50565b6000813590506132428161321c565b92915050565b6000806040838503121561325f5761325e612f35565b5b600061326d85828601612f83565b925050602061327e85828601613233565b9150509250929050565b613291816130c1565b811461329c57600080fd5b50565b6000813590506132ae81613288565b92915050565b600080604083850312156132cb576132ca612f35565b5b60006132d98582860161329f565b92505060206132ea8582860161329f565b9150509250929050565b6000806040838503121561330b5761330a612f35565b5b600061331985828601613233565b925050602061332a85828601613233565b9150509250929050565b6000806040838503121561334b5761334a612f35565b5b600061335985828601612f83565b925050602061336a85828601612f83565b9150509250929050565b600080600080600060a086880312156133905761338f612f35565b5b600061339e88828901613233565b95505060206133af8882890161329f565b94505060406133c088828901612fb9565b93505060606133d188828901612fb9565b92505060806133e288828901613233565b9150509295509295909350565b7f4e487b7100000000000000000000000000000000000000000000000000000000600052602260045260246000fd5b6000600282049050600182168061343657607f821691505b602082108103613449576134486133ef565b5b50919050565b7f4f776e61626c653a2063616c6c6572206973206e6f7420746865206f776e6572600082015250565b6000613485602083612e8e565b91506134908261344f565b602082019050919050565b600060208201905081810360008301526134b481613478565b9050919050565b600081905092915050565b50565b60006134d66000836134bb565b91506134e1826134c6565b600082019050919050565b60006134f7826134c9565b9150819050919050565b7f5472616e73666572206661696c65640000000000000000000000000000000000600082015250565b6000613537600f83612e8e565b915061354282613501565b602082019050919050565b600060208201905081810360008301526135668161352a565b9050919050565b600060608201905061358260008301866131c5565b61358f60208301856131c5565b61359c60408301846131c5565b949350505050565b7f45524332303a207472616e7366657220616d6f756e742065786365656473206160008201527f6c6c6f77616e6365000000000000000000000000000000000000000000000000602082015250565b6000613600602883612e8e565b915061360b826135a4565b604082019050919050565b6000602082019050818103600083015261362f816135f3565b9050919050565b7f4e487b7100000000000000000000000000000000000000000000000000000000600052601160045260246000fd5b600061367082612f98565b915061367b83612f98565b925082820390508181111561369357613692613636565b5b92915050565b60006136a482612f98565b91506136af83612f98565b92508282019050808211156136c7576136c6613636565b5b92915050565b60006040820190506136e260008301856131c5565b6136ef602083018461301a565b9392505050565b600060408201905061370b60008301856130ce565b61371860208301846130ce565b9392505050565b7f45524332303a2064656372656173656420616c6c6f77616e63652062656c6f7760008201527f207a65726f000000000000000000000000000000000000000000000000000000602082015250565b600061377b602583612e8e565b91506137868261371f565b604082019050919050565b600060208201905081810360008301526137aa8161376e565b9050919050565b60006040820190506137c6600083018561301a565b6137d3602083018461301a565b9392505050565b60006137e582612f98565b91506137f083612f98565b92508282026137fe81612f98565b9150828204841483151761381557613814613636565b5b5092915050565b7f4e487b7100000000000000000000000000000000000000000000000000000000600052601260045260246000fd5b600061385682612f98565b915061386183612f98565b9250826138715761387061381c565b5b828204905092915050565b7f4f776e61626c653a206e6577206f776e657220697320746865207a65726f206160008201527f6464726573730000000000000000000000000000000000000000000000000000602082015250565b60006138d8602683612e8e565b91506138e38261387c565b604082019050919050565b60006020820190508181036000830152613907816138cb565b9050919050565b7f45524332303a20617070726f76652066726f6d20746865207a65726f2061646460008201527f7265737300000000000000000000000000000000000000000000000000000000602082015250565b600061396a602483612e8e565b91506139758261390e565b604082019050919050565b600060208201905081810360008301526139998161395d565b9050919050565b7f45524332303a20617070726f766520746f20746865207a65726f20616464726560008201527f7373000000000000000000000000000000000000000000000000000000000000602082015250565b60006139fc602283612e8e565b9150613a07826139a0565b604082019050919050565b60006020820190508181036000830152613a2b816139ef565b9050919050565b7f4d61726b6574696e67207472616e73666572206661696c656400000000000000600082015250565b6000613a68601983612e8e565b9150613a7382613a32565b602082019050919050565b60006020820190508181036000830152613a9781613a5b565b9050919050565b7f446576207472616e73666572206661696c656400000000000000000000000000600082015250565b6000613ad4601383612e8e565b9150613adf82613a9e565b602082019050919050565b60006020820190508181036000830152613b0381613ac7565b9050919050565b7f4c6971756964697479207472616e73666572206661696c656400000000000000600082015250565b6000613b40601983612e8e565b9150613b4b82613b0a565b602082019050919050565b60006020820190508181036000830152613b6f81613b33565b9050919050565b7f45524332303a207472616e736665722066726f6d20746865207a65726f20616460008201527f6472657373000000000000000000000000000000000000000000000000000000602082015250565b6000613bd2602583612e8e565b9150613bdd82613b76565b604082019050919050565b60006020820190508181036000830152613c0181613bc5565b9050919050565b7f45524332303a207472616e7366657220746f20746865207a65726f206164647260008201527f6573730000000000000000000000000000000000000000000000000000000000602082015250565b6000613c64602383612e8e565b9150613c6f82613c08565b604082019050919050565b60006020820190508181036000830152613c9381613c57565b9050919050565b7f45524332303a207472616e7366657220616d6f756e742065786365656473206260008201527f616c616e63650000000000000000000000000000000000000000000000000000602082015250565b6000613cf6602683612e8e565b9150613d0182613c9a565b604082019050919050565b60006020820190508181036000830152613d2581613ce9565b9050919050565b7f4e487b7100000000000000000000000000000000000000000000000000000000600052604160045260246000fd5b7f4e487b7100000000000000000000000000000000000000000000000000000000600052603260045260246000fd5b600081519050613d9981612f6c565b92915050565b600060208284031215613db557613db4612f35565b5b6000613dc384828501613d8a565b91505092915050565b6000819050919050565b6000613df1613dec613de784613dcc565b61314b565b612f98565b9050919050565b613e0181613dd6565b82525050565b600081519050919050565b600082825260208201905092915050565b6000819050602082019050919050565b613e3c81612f5a565b82525050565b6000613e4e8383613e33565b60208301905092915050565b6000602082019050919050565b6000613e7282613e07565b613e7c8185613e12565b9350613e8783613e23565b8060005b83811015613eb8578151613e9f8882613e42565b9750613eaa83613e5a565b925050600181019050613e8b565b5085935050505092915050565b600060a082019050613eda6000830188613097565b613ee76020830187613df8565b8181036040830152613ef98186613e67565b9050613f0860608301856131c5565b613f156080830184613097565b969550505050505056fea26469706673582212208164483933bcb71bb2f2f1f9e370e52779a0a37addb09e2e089408b11a2b171064736f6c63430008140033",
  "linkReferences": {},
  "deployedLinkReferences": {}
}